:10000000004000208F080000250900002D09000095
:1000100000000000000000000000000000000000E0
:1000200000000000000000000000000025090000A2
:100030000000000000000000250900002509000064
:1000400025090000250900002509000025090000F8
:1000500025090000250900002509000025090000E8
:1000600025090000250900002509000025090000D8
:1000700025090000250900002509000025090000C8
:1000800025090000250900002509000025090000B8
:1000900025090000250900002509000025090000A8
:1000A0002509000025090000250900002509000098
:1000B0000000000000000000000000000000000040
:1000C00080B500AF0E4A08230221012000F046F956
:1000D00000F01AF80121132000F05EFB132000F05D
:1000E0008BFB132000F09EFB064B1900032000F051
:1000F00019FA032000F0B0FA00F042FBC046FDE719
:100100008C0900007C09000080B500AF03210120AC
:1001100000F082F9F021032000F0C6F9032101204C
:1001200000F09EF903220121092000F0D1F9C04618
:10013000BD4680BD80B584B000AF02003960FB1DB4
:100140001A70FB1D1B78074A944663441B02FB6030
:1001500001223B689A40FB681A64C046BD4604B061
:1001600080BDC0460004400080B584B000AF0200EE
:100170003960FB1D1A70FB1D1B78074A94466344C7
:100180001B02FB6001223B689A40FB685A64C04630
:10019000BD4604B080BDC0460004400080B584B0B8
:1001A00000AF02003960FB1D1A70FB1D1B78074A67
:1001B000944663441B02FB6001223B689A40FB6843
:1001C0009A64C046BD4604B080BDC04600044000ED
:1001D00080B584B000AF02003960FB1D1A70FB1DB2
:1001E0001B78084A944663441B02FB60FB685A680C
:1001F0003B68DA401300012213401800BD4604B0EA
:1002000080BDC0460004400080B588B000AFB96032
:100210007A600F217B18021C1A707B181B78194A10
:10022000944663441B02FB61BA6813005B009B1891
:10023000BB61FB699B680721BA6991400A00D24300
:1002400013407B617B6807221A40BB699A407B6937
:100250001A43FB699A60FB699B690121BA68914066
:100260000A00D24313407B617B68DB0801221A40FD
:10027000BB689A407B691A43FB699A61C046BD46D8
:1002800008B080BD0004400080B586B000AF396082
:100290001100FB1D021C1A70BB1D0A1C1A70FB1DED
:1002A0001B78154A944663441B027B617B69134AA1
:1002B000944663441B0A3B613B69114A944663447C
:1002C0001B02FB60FB681B683A6892000F2191409B
:1002D0000A00D2431340BB60BB1D1B780F221A409B
:1002E0003B689B009A40BB681A43FB681A60C04693
:1002F000BD4606B080BDC046000440000000FCBF03
:100300000002400080B588B000AFB9607A600F216C
:100310007B18021C1A707B181B780F4A94466344A2
:100320001B02FB61BB685B00BB61FB69DB680321EF
:10033000BA6991400A00D24313407B617B68032273
:100340001A40BB699A407B691A43FB69DA60C04670
:10035000BD4608B080BDC0460004400090B585B0E1
:1003600000AFB9607A6019000F243B19021C1A70A3
:100370000E23FB180A1C1A707B681B68002B07D120
:10038000BA683B191B7811001800FFF7EDFE07E073
:10039000BA680F23FB181B7811001800FFF7CAFE7C
:1003A0007B685A68B9680F243B191B781800FFF75F
:1003B0002BFF0E23FB181A78B9683B191B7818001D
:1003C000FFF762FF7B689A68B9683B191B781800D1
:1003D000FFF798FFC046BD4605B090BD80B584B01C
:1003E00000AF02003960FB1D1A70FB1D1B78094A23
:1003F000944663441B02FB60FB681B6901223B6857
:100400009A40FB681A61FB681B69C046BD4604B090
:1004100080BDC0460004400080B584B000AF02003B
:100420003960FB1D1A700C4B1B68FB60FB680B4AA4
:100430001340FB60FB1D1B789A013B681A43FB6865
:1004400013438022D2051343FB60034BFA681A6002
:10045000C046BD4604B080BD0000014000FFFFBFA4
:1004600080B584B000AF02003960FB1D1A700C4BE0
:100470001B68FB60FB680B4A1340FB60FB1D1B788D
:100480009A013B681A43FB68134380221206134308
:10049000FB60034BFA681A60C046BD4604B080BDDD
:1004A0000000014000FFFF7F80B582B000AF7860A0
:1004B00039603B68013B05491A027B68C0339B00E9
:1004C0005A50C046BD4602B080BDC0460000014043
:1004D00080B584B000AF3A60FB1D021C1A70BB1DD2
:1004E0000A1C1A700E4AFB1D1B7840339B009B5858
:1004F000FB60FB68FF229343FB60BB1D1B789A01E6
:100500003B681343FA681343FB600549FB1D1B78E6
:1005100040339B00FA685A50C046BD4604B080BDC7
:100520000000014080B584B000AF02003960FB1DBF
:100530001A70FB1D1B78072B4ED8FB1D1B789B01E7
:10054000274A94466344FB60FB1D1B78180000F0AB
:1005500067F8FB1D1B780021180000F0D3F8214B31
:10056000BB60FB681B68BA68D2431A403B681B78C3
:100570001906E023DB040B401A433B685B7B19023E
:10058000E023DB000B401A43FB681A603B681B78D2
:10059000042B02D1FB6831229A623B685B685A1EC9
:1005A000FB685A613B689B68002B03D1FB680E4ACD
:1005B000DA6004E03B689B685A1EFB68DA603B68BF
:1005C0001B7B1A0003231A40FB689A63FB1D1B78F0
:1005D000180000F00BF800E0C046BD4604B080BD36
:1005E0000001204000070007FFFF000080B582B037
:1005F00000AF0200FB1D1A70FB1D1B78072B09D8EA
:10060000064B1968FB1D1B7801229A40034B0A43D5
:100610001A6000E0C046BD4602B080BD0000204028
:1006200080B582B000AF0200FB1D1A70FB1D1B7865
:10063000072B0BD8074B1A68FB1D1B78012199402B
:100640000B00D943034B0A401A6000E0C046BD4688
:1006500002B080BD0000204080B582B000AF020033
:10066000FB1D1A70FB1D1B78072B0AD8074B9968D6
:10067000FB1D1B78183301229A40044B0A439A60F1
:1006800000E0C046BD4602B080BDC046000020402C
:1006900080B582B000AF0200FB1D1A70FB1D1B78F5
:1006A000072B0AD8074B9968FB1D1B7810330122D2
:1006B0009A40044B0A439A6000E0C046BD4602B02F
:1006C00080BDC0460000204080B584B000AF02006D
:1006D000FB1D1A70FB1D1B78072B01D900230AE0B4
:1006E000FB1D1B789B01064A94466344FB60FB6834
:1006F0009B681B041B0C1800BD4604B080BDC0469F
:100700000001204080B584B000AF02003960FB1DBD
:100710001A70FB1D1B78072B0AD8FB1D1B789B0149
:10072000054A94466344FB60FB683A689A6000E0BF
:10073000C046BD4604B080BD0001204080B584B0F5
:1007400000AF0200FB1D1A70BB1D0A1C1A70FB1DB6
:100750001B78072B0DD8FB1D1B789B01074A94467D
:100760006344FB60BB1D1B7803221A40FB681A63BD
:1007700000E0C046BD4604B080BDC0460001204038
:1007800080B500AF62B6C046BD4680BD80B500AF43
:1007900072B6C046BD4680BD80B584B000AF7860FB
:1007A00039607B68002B20DB7B689B08FB60114A6B
:1007B000FB68C0339B009B587A68D20018210A401E
:1007C000FF2191400A00D2431A403B689B01FF2160
:1007D00019407B68DB001820034099400B00054955
:1007E0001A43FB68C0339B005A50C046BD4604B054
:1007F00080BDC04600E100E080B582B000AF786007
:100800007B68002B08DB7B681F2213400449012210
:100810009A40C0235B00CA50C046BD4602B080BDAE
:1008200000E100E080B582B000AF78607B68002B0B
:1008300007DB7B681F221A40044B012191400A000C
:100840001A60C046BD4602B080BDC04600E100E06F
:1008500080B582B000AF78607B68002B0CDB7B68D2
:100860001F221340064901229A40130080228B5018
:10087000BFF34F8FBFF36F8FC046BD4602B080BD40
:1008800000E100E080B500AFC046BD4680BD80B548
:1008900086B000AF1C4B1D4A1A601D4A1D4BD31A6F
:1008A0009B107B601B4B7B611B4B3B610023FB6000
:1008B0000AE03A69131D3B617B69191D7961126871
:1008C0001A60FB680133FB60FA687B689A42F0D3D8
:1008D000124A134BD31A9B107B60114B7B61002390
:1008E000BB6007E07B691A1D7A6100221A60BB6851
:1008F0000133BB60BA687B689A42F3D300F01AF800
:10090000FFF7DEFBC046FDE7380003406588EDAC2D
:1009100000000020000000209809000000000020D6
:100920000000002080B500AFC046FDE780B500AFF5
:10093000C046FDE770B500260C4C0D4D641BA4109D
:10094000A64209D10026FFF79DFF0A4C0A4D641B01
:10095000A410A64205D170BDB300EB5898470136EC
:10096000EEE7B300EB5898470136F2E700000000CD
:100970000000000000000000000000000400000073
:100980001027000088130000000000000100000094
:08099000060000000000000059
:040000030000088F62
:00000001FF
