:10000000004000206B090000010A0000090A0000FE
:1000100000000000000000000000000000000000E0
:10002000000000000000000000000000010A0000C5
:100030000000000000000000010A0000010A0000AA
:10004000010A0000010A0000010A0000010A000084
:10005000010A0000010A0000010A0000010A000074
:10006000010A0000010A0000010A0000010A000064
:10007000010A0000010A0000010A0000010A000054
:10008000010A0000010A0000010A0000010A000044
:10009000010A0000010A0000010A0000010A000034
:1000A000010A0000010A0000010A0000010A000024
:1000B0000000000000000000000000000000000040
:1000C00080B582B002AF484A00230221052000F02B
:1000D000DBF9454A00230521052000F0D5F9424A05
:1000E00000230721052000F0CFF900F0A2F800233B
:1000F00007220121062000F02DFB0123009300239D
:1001000000220021002000F0A3FB01230093002324
:1001100000220121012000F09BFB0123009300231A
:1001200000220221022000F093FB002000F0E8FBF7
:10013000012000F0E5FB022000F0E2FB00F088FA6D
:1001400000F07CFB002000F053FB03001B051B0D9F
:100150009AB2264B1A80FA235B00180000F04CF884
:10016000022000F045FB03009B059B0D9AB2204B3B
:100170001A80FA235B00180000F03EF8012000F01E
:1001800037FB0300DAB21B4B1A70184B1B889AB26C
:10019000FA23DB009A4204D90221052000F07AF804
:1001A00003E00221052000F05BF8124B1B78DBB264
:1001B000C82B04D90521052000F06CF803E00521C7
:1001C000052000F04DF80A4B1B889AB2AF239B0024
:1001D0009A4204D90721052000F05CF8B0E7072116
:1001E000052000F03DF8ABE7580A000000000020B1
:1001F000040000200200002080B584B000AF7860C9
:100200000023FB6002E0FB680133FB60FA687B6857
:100210009A42F8DB0023BB6002E0BB680133BB609D
:10022000BA687B689A42F8DBC046C046BD4604B057
:1002300080BD80B500AF0321012000F083F90221C9
:10024000032000F0C7F90321012000F09FF90322E9
:100250000121122000F0D2F9C046BD4680BDC04643
:1002600080B584B000AF02003960FB1D1A70FB1D21
:100270001B78074A944663441B02FB6001223B68DB
:100280009A40FB681A64C046BD4604B080BDC046B3
:100290000004400080B584B000AF02003960FB1D4F
:1002A0001A70FB1D1B78074A944663441B02FB60CF
:1002B00001223B689A40FB685A64C046BD4604B0C0
:1002C00080BDC0460004400080B584B000AF02008D
:1002D0003960FB1D1A70FB1D1B78074A9446634466
:1002E0001B02FB6001223B689A40FB689A64C0468F
:1002F000BD4604B080BDC0460004400080B584B057
:1003000000AF02003960FB1D1A70FB1D1B78084A04
:10031000944663441B02FB60FB685A683B68DA4002
:100320001300012213401800BD4604B080BDC04632
:100330000004400080B588B000AFB9607A600F213A
:100340007B18021C1A707B181B78194A9446634468
:100350001B02FB61BA6813005B009B18BB61FB6961
:100360009B680721BA6991400A00D24313407B6120
:100370007B6807221A40BB699A407B691A43FB6974
:100380009A60FB699B690121BA6891400A00D243D7
:1003900013407B617B68DB0801221A40BB689A40EE
:1003A0007B691A43FB699A61C046BD4608B080BDAF
:1003B0000004400080B586B000AF39601100FB1D1D
:1003C000021C1A70BB1D0A1C1A70FB1D1B78154AF3
:1003D000944663441B027B617B69134A94466344E1
:1003E0001B0A3B613B69114A944663441B02FB6054
:1003F000FB681B683A6892000F2191400A00D243C3
:100400001340BB60BB1D1B780F221A403B689B004A
:100410009A40BB681A43FB681A60C046BD4606B0E6
:1004200080BDC046000440000000FCBF0002400048
:1004300080B588B000AFB9607A600F217B18021CCC
:100440001A707B181B780F4A944663441B02FB61A9
:10045000BB685B00BB61FB69DB680321BA69914043
:100460000A00D24313407B617B6803221A40BB69B8
:100470009A407B691A43FB69DA60C046BD4608B002
:1004800080BDC0460004400090B585B000AFB960A3
:100490007A6019000F243B19021C1A700E23FB18F6
:1004A0000A1C1A707B681B68002B07D1BA683B19BD
:1004B0001B7811001800FFF7EDFE07E0BA680F2364
:1004C000FB181B7811001800FFF7CAFE7B685A68FA
:1004D000B9680F243B191B781800FFF72BFF0E2378
:1004E000FB181A78B9683B191B781800FFF762FFF0
:1004F0007B689A68B9683B191B781800FFF798FF6A
:10050000C046BD4605B090BD80B584B000AF0200C6
:100510003960FB1D1A70FB1D1B78094A9446634421
:100520001B02FB60FB681B6901223B689A40FB6869
:100530001A61FB681B69C046BD4604B080BDC04659
:100540000004400080B584B000AF02003960FB1D9C
:100550001A700C4B1B68FB60FB680B4A1340FB6076
:10056000FB1D1B789A013B681A43FB6813438022EA
:10057000D2051343FB60034BFA681A60C046BD46C0
:1005800004B080BD0000014000FFFFBF80B584B013
:1005900000AF02003960FB1D1A700C4B1B68FB603A
:1005A000FB680B4A1340FB60FB1D1B789A013B68FC
:1005B0001A43FB681343802212061343FB60034B6C
:1005C000FA681A60C046BD4604B080BD0000014014
:1005D00000FFFF7F80B582B000AF786039603B6874
:1005E000013B05491A027B68C0339B005A50C04644
:1005F000BD4602B080BDC0460000014080B584B059
:1006000000AF3A60FB1D021C1A70BB1D0A1C1A7059
:100610000E4AFB1D1B7840339B009B58FB60FB6818
:10062000FF229343FB60BB1D1B789A013B68134379
:10063000FA681343FB600549FB1D1B7840339B00A0
:10064000FA685A50C046BD4604B080BD0000014063
:1006500080B500AF62B6C046BD4680BD80B500AF74
:1006600072B6C046BD4680BD80B584B000AF78602C
:1006700039607B68002B20DB7B689B08FB60114A9C
:10068000FB68C0339B009B587A68D20018210A404F
:10069000FF2191400A00D2431A403B689B01FF2191
:1006A00019407B68DB001820034099400B00054986
:1006B0001A43FB68C0339B005A50C046BD4604B085
:1006C00080BDC04600E100E080B582B000AF786038
:1006D0007B68002B08DB7B681F2213400449012242
:1006E0009A40C0235B00CA50C046BD4602B080BDE0
:1006F00000E100E080B582B000AF78607B68002B3D
:1007000007DB7B681F221A40044B012191400A003D
:100710001A60C046BD4602B080BDC04600E100E0A0
:1007200080B582B000AF78607B68002B0CDB7B6803
:100730001F221340064901229A40130080228B5049
:10074000BFF34F8FBFF36F8FC046BD4602B080BD71
:1007500000E100E0B0B584B000AF05000C0010006F
:100760001900FB1D2A1C1A70BB1D221C1A707B1D50
:10077000021C1A703B1D0A1C1A701A4B1B68FB6086
:10078000FB68194A1340FB60FB1D1B781B0170229C
:100790001A407B1D1B785902E0231B010B401A43B2
:1007A000FB681343114A1343FB600E4BFA681A604F
:1007B000BB1D1B780B4901229A40C0239B00CA50E5
:1007C000084B59683B1D1B781A04064B0A435A60B4
:1007D000044B1A69034B0A210A431A61C046BD46FD
:1007E00004B0B0BD00003A400FF1FF3F800000C0F0
:1007F00080B584B000AF0200FB1D1A70FB1D1B7892
:1008000001229A400C4B5A62C0460B4A84239B003B
:10081000D35801221340012BF7D1074AFB1D1B7847
:1008200060339B009A580E217B181A807B181B8816
:100830001800BD4604B080BD00003A4080B500AF4E
:10084000024B01225A62C046BD4680BD00003A40BC
:10085000B0B584B000AF05000C0010001900FB1DFE
:100860002A1C1A70BB1D221C1A707B1D021C1A70D8
:100870003B1D0A1C1A70BB1D1B78022B08D11E4B96
:100880005A681D4B01210A435A60BB1D01221A7090
:10089000194AFB1D1B7820339B009B58FB60FB68AB
:1008A000164A1340FB602023FB181B780F221A40C6
:1008B0003B1D1B781B01FF210B401A43BB1D1B78FE
:1008C000590280239B000B401A437B1D1B781903A0
:1008D000C0239B010B4013431A00FB681343FB60CA
:1008E0000549FB1D1B7820339B00FA685A50C0460F
:1008F000BD4604B0B0BDC04600003A4088CDFFFF01
:1009000080B582B000AF0200FB1D1A70074B1A6A57
:10091000FB1D1B78012199400B001900034B0A4372
:100920001A62C046BD4602B080BDC04600003A40D3
:1009300080B582B000AF0200FB1D1A70074B1A6A27
:10094000FB1D1B78012199400B00DB431900034B71
:100950000A401A62C046BD4602B080BD00003A405F
:1009600080B500AFC046BD4680BD80B586B000AF43
:100970001C4B1D4A1A601D4A1D4BD31A9B107B60ED
:100980001B4B7B611B4B3B610023FB600AE03A6918
:10099000131D3B617B69191D796112681A60FB6840
:1009A0000133FB60FA687B689A42F0D3124A134B1A
:1009B000D31A9B107B60114B7B610023BB6007E067
:1009C0007B691A1D7A6100221A60BB680133BB6023
:1009D000BA687B689A42F3D300F01AF8FFF770FB0D
:1009E000C046FDE7380003406588EDAC00000020FC
:1009F00000000020640A0000080000200000002021
:100A000080B500AFC046FDE780B500AFC046FDE74A
:100A100070B500260C4C0D4D641BA410A64209D1E4
:100A20000026FFF79DFF0A4C0A4D641BA410A64246
:100A300005D170BDB300EB5898470136EEE7B3001F
:100A4000EB5898470136F2E7000000000000000074
:100A50000000000000000000000000000600000090
:040A60000000000092
:040000030000096B85
:00000001FF
