:1000000000400020030B0000990B0000A10B000032
:1000100000000000000000000000000000000000E0
:10002000000000000000000000000000990B00002C
:100030000000000000000000990B0000990B000078
:10004000990B0000990B0000990B0000990B000020
:10005000990B0000990B0000990B0000990B000010
:10006000990B0000990B0000990B0000990B000000
:10007000990B0000990B0000990B0000990B0000F0
:10008000990B0000990B0000990B0000990B0000E0
:10009000990B0000990B0000990B0000990B0000D0
:1000A000990B0000990B0000990B0000990B0000C0
:1000B0000000000000000000000000000000000040
:1000C00080B500AF002000F0A5FA284A00230621E1
:1000D000012000F0BFF9254A00230421012000F08F
:1000E000B9F900F084F80121132000F08FFC1320EF
:1000F00000F0BCFC132000F0CFFC1D4B19000020C9
:1001000000F04AFB00F076FC0421012000F0A8F882
:100110000021002000F030FC002000F0D7FB154B40
:10012000180000F02DF8002000F0ECFB002000F09B
:1001300005FC0200104B1A600421012000F0AAF80F
:100140000621012000F0A6F80C4B180000F035F84D
:100150000421012000F09EF80621012000F09AF809
:10016000064B180000F029F8C046D1E7180D000032
:10017000080D00008813000000000020204E000041
:1001800080B584B000AF78600023FB6002E0FB68BC
:100190000133FB60FA687B689A42F8DB0023BB609E
:1001A00002E0BB680133BB60BA687B689A42F8DB47
:1001B000C046C046BD4604B080BD80B582B000AF29
:1001C00078600021002000F0D7FB002000F07EFBCB
:1001D000C046002000F0B2FB02007B689342F8D8D2
:1001E000002000F08FFBC046BD4602B080BD80B548
:1001F00000AF0A4B8022D2051A60094BB822520187
:100200001A60064B1A68054B06490A431A60064BEA
:1002100041221A60C046BD4680BDC0460000014074
:100220000403014041FF00801801014080B584B003
:1002300000AF02003960FB1D1A70FB1D1B78074AD6
:10024000944663441B02FB6001223B689A40FB68B2
:100250001A64C046BD4604B080BDC04600044000DC
:1002600080B584B000AF02003960FB1D1A70FB1D21
:100270001B78074A944663441B02FB6001223B68DB
:100280009A40FB685A64C046BD4604B080BDC04673
:100290000004400080B584B000AF02003960FB1D4F
:1002A0001A70FB1D1B78074A944663441B02FB60CF
:1002B00001223B689A40FB689A64C046BD4604B080
:1002C00080BDC0460004400080B584B000AF02008D
:1002D0003960FB1D1A70FB1D1B78084A9446634465
:1002E0001B02FB60FB685A683B68DA40130001227E
:1002F00013401800BD4604B080BDC0460004400055
:1003000080B588B000AFB9607A600F217B18021CFD
:100310001A707B181B78194A944663441B02FB61D0
:10032000BA6813005B009B18BB61FB699B680721DF
:10033000BA6991400A00D24313407B617B6807226F
:100340001A40BB699A407B691A43FB699A60FB6952
:100350009B690121BA6891400A00D24313407B6136
:100360007B68DB0801221A40BB689A407B691A430C
:10037000FB699A61C046BD4608B080BD00044000DC
:1003800080B586B000AF39601100FB1D021C1A70E9
:10039000BB1D0A1C1A70FB1D1B78154A944663444A
:1003A0001B027B617B69134A944663441B0A3B61D1
:1003B0003B69114A944663441B02FB60FB681B685F
:1003C0003A6892000F2191400A00D2431340BB606B
:1003D000BB1D1B780F221A403B689B009A40BB68EC
:1003E0001A43FB681A60C046BD4606B080BDC046D1
:1003F000000440000000FCBF0002400080B588B04F
:1004000000AFB9607A600F217B18021C1A707B184C
:100410001B780F4A944663441B02FB61BB685B0078
:10042000BB61FB69DB680321BA6991400A00D243D2
:1004300013407B617B6803221A40BB699A407B6949
:100440001A43FB69DA60C046BD4608B080BDC046AD
:100450000004400090B585B000AFB9607A60190023
:100460000F243B19021C1A700E23FB180A1C1A7069
:100470007B681B68002B07D1BA683B191B781100F9
:100480001800FFF7EDFE07E0BA680F23FB181B7892
:1004900011001800FFF7CAFE7B685A68B9680F247C
:1004A0003B191B781800FFF72BFF0E23FB181A7857
:1004B000B9683B191B781800FFF762FF7B689A68E0
:1004C000B9683B191B781800FFF798FFC046BD4676
:1004D00005B090BD80B584B000AF02003960FB1D4F
:1004E0001A70FB1D1B78094A944663441B02FB608B
:1004F000FB681B6901223B689A40FB681A61FB6834
:100500001B69C046BD4604B080BDC0460004400023
:1005100080B582B000AF02003960FB1D1A70FB1D70
:100520001B789B01FF221A403B683F210B401A4376
:10053000044B8021C9050A431A60C046BD4602B07B
:1005400080BDC0460000014080B584B000AFB960F6
:100550007A600F217B18021C1A707B187A181278A7
:100560001A700A4ABB68C0339B009B58084A1A405D
:100570007B681B0207490B4004491A43BB68C03320
:100580009B005A50C046BD4604B080BD00000140EB
:10059000FF0000FF00FFFF0080B582B000AF020047
:1005A0003960FB1D1A70FB1D1B789B01FF221A404E
:1005B0003B683F210B401A43044B05490A431A602C
:1005C000024B1B68C046BD4602B080BD0000014022
:1005D00000FF008080B582B000AF3A60FB1D021CB6
:1005E0001A70BB1D0A1C1A70BB1D1B789B01FF22D1
:1005F000134019003B683F221A400548FB1D1B7839
:100600000A4340339B001A50C046BD4602B080BD2D
:100610000000014080B582B000AF0200FB1D1A70DF
:10062000084B9B6A0C2293431900FB1D1B789B000F
:100630000C221A40034B0A439A62C046BD4602B0E0
:1006400080BDC0460000034080B500AF034B802250
:1006500012061A63C046BD4680BDC0460000034076
:1006600080B500AF0A4A0B4BD3589B001C221340A5
:1006700019000A005201521A93019B1ADB005B1801
:100680009B01054A944663441800BD4680BDC046A0
:1006900000000340080F000000366E0180B586B0F0
:1006A00000AF7860FFF7DCFF02007B6893425FD009
:1006B0007B68314A944663443049180000F074FA6C
:1006C0000300FB602E4A2F4B0021D1502E49E62318
:1006D000FF33FA688A18D3181B78DBB2284A19004E
:1006E0002A4BD150264AF1231B010021D150264923
:1006F000E6235B00FA688A18D3181B78DBB2204A1D
:100700001900234BD150FB689B08FB6000237B61E1
:1007100002E07B6901337B617B691E4A9342F8DD0D
:10072000FB68002B24D0164A164BD358072293435C
:100730001A00FB68013B07210B4011491343114A82
:100740008B5000233B6102E03B6901333B613B6915
:10075000104A9342F8DD0A4A0A4BD35807229343C2
:100760001A00FB6807210B4005491343054A8B50CB
:10077000C046BD4606B080BD00CA91FE40420F0093
:1007800000000340080F000000F0FF0F0C0F0000F6
:10079000180F00004FC3000080B584B000AF020006
:1007A0003960FB1D1A70FB1D1B78072B4ED8FB1DF3
:1007B0001B789B01274A94466344FB60FB1D1B7812
:1007C000180000F067F8FB1D1B780021180000F0EE
:1007D000D3F8214BBB60FB681B68BA68D2431A4050
:1007E0003B681B781906E023DB040B401A433B6887
:1007F0005B7B1902E023DB000B401A43FB681A60A5
:100800003B681B78042B02D1FB6831229A623B685B
:100810005B685A1EFB685A613B689B68002B03D1DA
:10082000FB680E4ADA6004E03B689B685A1EFB686E
:10083000DA603B681B7B1A0003231A40FB689A634B
:10084000FB1D1B78180000F00BF800E0C046BD4609
:1008500004B080BD0001204000070007FFFF00003A
:1008600080B582B000AF0200FB1D1A70FB1D1B7823
:10087000072B09D8064B1968FB1D1B7801229A40EB
:10088000034B0A431A6000E0C046BD4602B080BD7B
:100890000000204080B582B000AF0200FB1D1A703E
:1008A000FB1D1B78072B0BD8074B1A68FB1D1B7809
:1008B000012199400B00D943034B0A401A6000E024
:1008C000C046BD4602B080BD0000204080B582B069
:1008D00000AF0200FB1D1A70FB1D1B78072B0AD806
:1008E000074B9968FB1D1B78183301229A40044B73
:1008F0000A439A6000E0C046BD4602B080BDC046D3
:100900000000204080B582B000AF0200FB1D1A70CD
:10091000FB1D1B78072B0AD8074B9968FB1D1B781A
:10092000103301229A40044B0A439A6000E0C0460B
:10093000BD4602B080BDC0460000204080B584B0F6
:1009400000AF0200FB1D1A70FB1D1B78072B01D99D
:1009500000230AE0FB1D1B789B01064A9446634472
:10096000FB60FB689B681B041B0C1800BD4604B0B1
:1009700080BDC0460001204080B584B000AF0200B9
:100980003960FB1D1A70FB1D1B78072B0AD8FB1D55
:100990001B789B01054A94466344FB60FB683A68F8
:1009A0009A6000E0C046BD4604B080BD0001204012
:1009B00080B584B000AF0200FB1D1A70BB1D0A1C7D
:1009C0001A70FB1D1B78072B0DD8FB1D1B789B0194
:1009D000074A94466344FB60BB1D1B7803221A4000
:1009E000FB681A6300E0C046BD4604B080BDC04647
:1009F0000001204080B500AF62B6C046BD4680BD54
:100A000080B500AF72B6C046BD4680BD80B584B02B
:100A100000AF786039607B68002B20DB7B689B0827
:100A2000FB60114AFB68C0339B009B587A68D20078
:100A300018210A40FF2191400A00D2431A403B6826
:100A40009B01FF2119407B68DB001820034099407F
:100A50000B0005491A43FB68C0339B005A50C0463F
:100A6000BD4604B080BDC04600E100E080B582B064
:100A700000AF78607B68002B08DB7B681F22134087
:100A8000044901229A40C0235B00CA50C046BD46BB
:100A900002B080BD00E100E080B582B000AF7860B8
:100AA0007B68002B07DB7B681F221A40044B012167
:100AB00091400A001A60C046BD4602B080BDC046E3
:100AC00000E100E080B582B000AF78607B68002B69
:100AD0000CDB7B681F221340064901229A40130059
:100AE00080228B50BFF34F8FBFF36F8FC046BD4640
:100AF00002B080BD00E100E080B500AFC046BD4659
:100B000080BD80B586B000AF1C4B1D4A1A601D4ADF
:100B10001D4BD31A9B107B601B4B7B611B4B3B61B6
:100B20000023FB600AE03A69131D3B617B69191DD4
:100B3000796112681A60FB680133FB60FA687B68B0
:100B40009A42F0D3124A134BD31A9B107B60114B7D
:100B50007B610023BB6007E07B691A1D7A6100227C
:100B60001A60BB680133BB60BA687B689A42F3D3F2
:100B700000F0A6F8FFF7A4FAC046FDE738000340EE
:100B80006588EDAC0000002000000020240D00006E
:100B9000040000200000002080B500AFC046FDE743
:100BA00080B500AFC046FDE7002243088B4274D3F6
:100BB00003098B425FD3030A8B4244D3030B8B425E
:100BC00028D3030C8B420DD3FF22090212BA030C67
:100BD0008B4202D31212090265D0030B8B4219D348
:100BE00000E0090AC30B8B4201D3CB03C01A524168
:100BF000830B8B4201D38B03C01A5241430B8B42B0
:100C000001D34B03C01A5241030B8B4201D30B0398
:100C1000C01A5241C30A8B4201D3CB02C01A5241BF
:100C2000830A8B4201D38B02C01A5241430A8B4282
:100C300001D34B02C01A5241030A8B4201D30B026B
:100C4000C01A5241CDD2C3098B4201D3CB01C01A85
:100C5000524183098B4201D38B01C01A524143098F
:100C60008B4201D34B01C01A524103098B4201D37D
:100C70000B01C01A5241C3088B4201D3CB00C01AEA
:100C8000524183088B4201D38B00C01A5241430862
:100C90008B4201D34B00C01A5241411A00D2014687
:100CA000524110467047FFE701B5002000F006F8FA
:100CB00002BDC0460029F7D076E770477047C046AE
:100CC00070B500260C4C0D4D641BA410A64209D132
:100CD0000026FFF711FF0A4C0A4D641BA410A64220
:100CE00005D170BDB300EB5898470136EEE7B3006D
:100CF000EB5898470136F2E70000000000000000C2
:100D00000000000000000000000000000080000063
:100D100000000000000000000100000006000000CC
:040D200000000000CF
:0400000300000B03EB
:00000001FF
