:10000000003000200F06000099060000A106000045
:1000100000000000000000000000000000000000E0
:100020000000000000000000000000009906000031
:100030000000000000000000990600009906000082
:100040009906000099060000B10200007502000048
:100050009906000099060000EF01000099060000D3
:100060009906000099060000990600009906000014
:100070009906000099060000990600009906000004
:1000800099060000990600009906000099060000F4
:1000900099060000990600009906000099060000E4
:1000A00099060000990600009906000099060000D4
:1000B0000000000000000000000000000000000040
:1000C00080B582B000AF2F4B2F4A1A602F4B012210
:1000D0001A602F4B1A682E4B01210A431A602D4AD1
:1000E0002D480023022100F0CEF92C4A2C48002391
:1000F000062100F0C8F92B4A2B480023072100F005
:10010000C2F92A4A24480023002100F0BCF9234AFE
:1001100023480023022100F0B6F90121062000F057
:10012000FDF90121032000F0F9F90121022000F07E
:10013000F5F9032000F020FA062000F01DFA022055
:1001400000F01AFA032000F02DFA062000F02AFA37
:10015000022000F027FA00F0DBF900237B600BE0BF
:100160000F4B0621180000F0EDF8114B180000F0BD
:1001700021F87B6801337B607B68052BF0DDC0468E
:10018000FDE7C04640000340409C0000440003409F
:100190004C000340FC060000000204400807000079
:1001A0000001044014070000000304402007000081
:1001B000A086010080B584B000AF78600023FB60AA
:1001C00002E0FB680133FB60FA687B689A42F8DB67
:1001D0000023BB6002E0BB680133BB60BA687B6888
:1001E0009A42F8DBC046C046BD4604B080BD80B52B
:1001F00082B000AF184B1A68184B1A60184B0122D6
:100200001A60184B1B685A1C164B1A60164B0221B9
:10021000180000F097F8154B1800FFF7CBFF124BB2
:100220000221180000F08EF8104B1800FFF7C2FFF3
:10023000094B1B681B041B0C7B607B680C4A9446B3
:1002400063441B041B0C7B60034B7A681A60C04636
:10025000BD4602B080BDC0464000034004000020FF
:10026000440003400000002000010440A08601007B
:10027000409C000080B500AF0A4B0721180000F039
:1002800035F9094B1800FFF795FF064B07211800B9
:1002900000F066F8E023DB05044A1A60C046BD465C
:1002A00080BDC04600030440204E00007856341242
:1002B00080B500AF124B0021180000F017F9114B68
:1002C0001800FFF777FF0E4B0021180000F048F8E8
:1002D000031E11D10A4B0221180000F033F80A4B1B
:1002E0001800FFF767FF064B0221180000F02AF8FC
:1002F000054B1800FFF75EFFC046BD4680BDC046F7
:1003000000020440204E0000A086010080B582B0AB
:1003100000AF7860396001223B689A407B681A64BC
:10032000C046BD4602B080BD80B582B000AF7860E7
:10033000396001223B689A407B685A64C046BD46DA
:1003400002B080BD80B582B000AF78603960012214
:100350003B689A407B689A64C046BD4602B080BD47
:1003600080B582B000AF786039607B685A683B68BE
:10037000DA401300012213401800BD4602B080BDD0
:1003800080B586B000AFF860B9607A60BA681300D3
:100390005B009B187B61FB689B6807217A69914031
:1003A0000A00D24313403B617B6807221A407B69F5
:1003B0009A403B691A43FB689A60FB689B6901217C
:1003C000BA6891400A00D24313403B617B68DB0866
:1003D00001221A40BB689A403B691A43FB689A6144
:1003E000C046BD4606B080BD80B588B000AFF8609D
:1003F000B960FB1D1A70FB68114A944663441B0ADE
:10040000FB61FB690F4A944663441B02BB61BB69F5
:100410001B68BA6892000F2191400A00D243134032
:100420007B61FB1D1B780F221A40BB689B009A4022
:100430007B691A43BB691A60C046BD4608B080BDDF
:100440000000FCBF0002400080B586B000AFF8603D
:10045000B9607A60BB685B007B61FB68DB68032185
:100460007A6991400A00D24313403B617B680322C2
:100470001A407B699A403B691A43FB68DA60C046C0
:10048000BD4606B080BD80B584B000AFF860B960ED
:100490007A601A00FB1C1A707B681B68002B06D15F
:1004A000BA68FB6811001800FFF73EFF05E0BA6864
:1004B000FB6811001800FFF729FF7B685A68B968CC
:1004C000FB681800FFF75CFFFB1C1A78B968FB6833
:1004D0001800FFF789FF7B689A68B968FB68180005
:1004E000FFF7B2FFC046BD4604B080BD80B582B004
:1004F00000AF786039607B681B6901223B689A40D5
:100500007B681A617B681B69C046BD4602B080BD2E
:1005100080B500AF62B6C046BD4680BD80B582B032
:1005200000AF786039607B68002B1FDB114A7B6865
:100530009B08C0339B009B587A6803210A40D20075
:10054000FF2191400A00D2431A4011003B689B01F1
:10055000FF221A407B6803200340DB009A400548D5
:100560007B689B080A43C0339B001A50C046BD46B7
:1005700002B080BD00E100E080B582B000AF7860DD
:100580007B68002B08DB7B681F2213400449012293
:100590009A40C0235B00CA50C046BD4602B080BD31
:1005A00000E100E080B582B000AF78607B68002B8E
:1005B00007DB7B681F221A40044B012191400A008F
:1005C0001A60C046BD4602B080BDC04600E100E0F2
:1005D00080B582B000AF78607B68002B0CDB7B6855
:1005E0001F221340064901229A40130080228B509B
:1005F000BFF34F8FBFF36F8FC046BD4602B080BDC3
:1006000000E100E080B500AFC046BD4680BD80B5CA
:1006100086B000AF1B4A1C4BD31A9B107B601A4B51
:100620007B611A4B3B610023FB600AE03A69131DB2
:100630003B617B69191D796112681A60FB6801339F
:10064000FB60FA687B689A42F0D3114A114BD31AC7
:100650009B107B600F4B7B610023BB6007E07B69D5
:100660001A1D7A6100221A60BB680133BB60BA6848
:100670007B689A42F3D300F01DF8FFF721FDC046D6
:10068000FDE7C04600000020000000202C0700000D
:10069000080000200000002080B500AFC046FDE744
:1006A00080B500AF024B02211800FFF74BFEF9E7BF
:1006B0000002044070B500260C4C0D4D641BA410C4
:1006C000A64209D10026FFF79DFF0A4C0A4D641B84
:1006D000A410A64205D170BDB300EB58984701366F
:1006E000EEE7B300EB5898470136F2E70000000050
:1006F00000000000000000000000000001000000F9
:1007000006000000000000000100000006000000DC
:1007100000000000010000000200000002000000D4
:0C072000010000000200000002000000C8
:040000030000060FE4
:00000001FF
