:1000000000300020EB05000081060000890600009A
:1000100000000000000000000000000000000000E0
:100020000000000000000000000000008106000049
:1000300000000000000000008106000081060000B2
:100040008106000081060000C50100009301000048
:100050008106000081060000810600008106000084
:100060008106000081060000810600008106000074
:100070008106000081060000810600008106000064
:100080008106000081060000810600008106000054
:100090008106000081060000810600008106000044
:1000A0008106000081060000810600008106000034
:1000B0000000000000000000000000000000000040
:1000C00080B500AF00F00AFA1E4A00230221022088
:1000D00000F0A6F91C4A00230721032000F0A0F934
:1000E0001A4A00230021022000F09AF9184A00233E
:1000F0000621012000F094F90121032000F0FAF913
:100100000121022000F0F6F9032000F023FA02207A
:1001100000F020FA032000F033FA022000F030FA59
:100120000621012000F068F80A4B180000F014F8CE
:100130000621012000F07AF8064B180000F00CF8B8
:10014000C046EDE7D8060000FC060000E40600000B
:10015000F006000060EA000080B584B000AF78606F
:100160000023FB6002E0FB680133FB60FA687B68F8
:100170009A42F8DB0023BB6002E0BB680133BB603E
:10018000BA687B689A42F8DBC046C046BD4604B0F8
:1001900080BD80B500AF0721032000F081F9084B36
:1001A0001800FFF7D9FF0721032000F073F8031EA2
:1001B00003D10221022000F053F8C046BD4680BDA5
:1001C000204E000080B500AF0021022000F068F949
:1001D000084B1800FFF7C0FF0021022000F05AF87A
:1001E000031E03D10221022000F03AF8C046BD46AA
:1001F00080BDC046204E000080B584B000AF020034
:100200003960FB1D1A70FB1D1B78074A9446634436
:100210001B02FB6001223B689A40FB681A64C046DF
:10022000BD4604B080BDC0460004400080B584B027
:1002300000AF02003960FB1D1A70FB1D1B78074AD6
:10024000944663441B02FB6001223B689A40FB68B2
:100250005A64C046BD4604B080BDC046000440009C
:1002600080B584B000AF02003960FB1D1A70FB1D21
:100270001B78074A944663441B02FB6001223B68DB
:100280009A40FB689A64C046BD4604B080BDC04633
:100290000004400080B584B000AF02003960FB1D4F
:1002A0001A70FB1D1B78084A944663441B02FB60CE
:1002B000FB685A683B68DA401300012213401800BB
:1002C000BD4604B080BDC0460004400080B588B083
:1002D00000AFB9607A600F217B18021C1A707B187E
:1002E0001B78194A944663441B02FB61BA681300E9
:1002F0005B009B18BB61FB699B680721BA69914051
:100300000A00D24313407B617B6807221A40BB6915
:100310009A407B691A43FB699A60FB699B690121DA
:10032000BA6891400A00D24313407B617B68DB08C6
:1003300001221A40BB689A407B691A43FB699A61A3
:10034000C046BD4608B080BD0004400080B586B000
:1003500000AF39601100FB1D021C1A70BB1D0A1C86
:100360001A70FB1D1B78154A944663441B027B617F
:100370007B69134A944663441B0A3B613B69114AFB
:10038000944663441B02FB60FB681B683A6892005A
:100390000F2191400A00D2431340BB60BB1D1B7864
:1003A0000F221A403B689B009A40BB681A43FB68C7
:1003B0001A60C046BD4606B080BDC046000440007D
:1003C0000000FCBF0002400080B588B000AFB960FB
:1003D0007A600F217B18021C1A707B181B780F4A59
:1003E000944663441B02FB61BB685B00BB61FB6915
:1003F000DB680321BA6991400A00D24313407B6154
:100400007B6803221A40BB699A407B691A43FB69E7
:10041000DA60C046BD4608B080BDC046000440005A
:1004200090B585B000AFB9607A6019000F243B1910
:10043000021C1A700E23FB180A1C1A707B681B68BA
:10044000002B07D1BA683B191B7811001800FFF781
:10045000EDFE07E0BA680F23FB181B7811001800A7
:10046000FFF7CAFE7B685A68B9680F243B191B78EE
:100470001800FFF72BFF0E23FB181A78B9683B19F9
:100480001B781800FFF762FF7B689A68B9683B1910
:100490001B781800FFF798FFC046BD4605B090BD19
:1004A00080B584B000AF02003960FB1D1A70FB1DDF
:1004B0001B78094A944663441B02FB60FB681B6976
:1004C00001223B689A40FB681A61FB681B69C046C1
:1004D000BD4604B080BDC0460004400080B500AFFA
:1004E00062B6C046BD4680BD80B500AF72B6C0469C
:1004F000BD4680BD80B584B000AF786039607B6850
:10050000002B20DB7B689B08FB60114AFB68C03333
:100510009B009B587A68D20018210A40FF21914025
:100520000A00D2431A403B689B01FF2119407B68B7
:10053000DB001820034099400B0005491A43FB6873
:10054000C0339B005A50C046BD4604B080BDC04673
:1005500000E100E080B582B000AF78607B68002BDE
:1005600008DB7B681F221340044901229A40C02304
:100570005B00CA50C046BD4602B080BD00E100E04D
:1005800080B582B000AF78607B68002B07DB7B68AA
:100590001F221A40044B012191400A001A60C046F4
:1005A000BD4602B080BDC04600E100E080B582B02B
:1005B00000AF78607B68002B0CDB7B681F22134048
:1005C000064901229A40130080228B50BFF34F8FBF
:1005D000BFF36F8FC046BD4602B080BD00E100E0B2
:1005E00080B500AFC046BD4680BD80B586B000AFC7
:1005F0001C4B1D4A1A601D4A1D4BD31A9B107B6071
:100600001B4B7B611B4B3B610023FB600AE03A699B
:10061000131D3B617B69191D796112681A60FB68C3
:100620000133FB60FA687B689A42F0D3124A134B9D
:10063000D31A9B107B60114B7B610023BB6007E0EA
:100640007B691A1D7A6100221A60BB680133BB60A6
:10065000BA687B689A42F3D300F01AF8FFF730FDCE
:10066000C046FDE7380003406588EDAC000000207F
:10067000000000200807000000000020000000200B
:1006800080B500AFC046FDE780B500AFC046FDE7CE
:1006900070B500260C4C0D4D641BA410A64209D168
:1006A0000026FFF79DFF0A4C0A4D641BA410A642CA
:1006B00005D170BDB300EB5898470136EEE7B300A3
:1006C000EB5898470136F2E70000000000000000F8
:1006D0000000000000000000010000000600000013
:1006E0000000000001000000020000000200000005
:1006F00001000000060000000000000001000000F2
:080700000200000002000000ED
:04000003000005EB09
:00000001FF
