:10000000004000209F0C0000350D00003D0D000059
:1000100000000000000000000000000000000000E0
:10002000000000000000000000000000350D00008E
:100030000000000000000000350D0000350D00003C
:10004000350D0000350D0000350D0000350D0000A8
:10005000350D0000350D0000350D0000350D000098
:10006000350D0000350D0000350D0000350D000088
:10007000350D0000350D0000350D0000350D000078
:10008000350D0000350D0000350D0000E1010000C8
:10009000350D0000350D0000350D0000350D000058
:1000A000350D0000350D0000350D0000350D000048
:1000B0000000000000000000000000000000000040
:1000C00080B500AF3B4A00230221052000F014FA5E
:1000D000394A08230221012000F00EFA374A002392
:1000E0000621052000F008FA354A002307210520E3
:1000F00000F002FA00F0B3F80121132000F056FCE2
:10010000132000F083FC132000F096FC012307224B
:100110000121062000F0C0FC012300220021002064
:1001200000F038FD002000F085FD264B190003206B
:1001300000F0C6FA032000F05DFB234B19000220FB
:1001400000F0BEFA022000F055FB00F023FC00F0A6
:1001500017FD1E4B1B78092BF9D91D4B1B889BB231
:100160000A21180000F0EEFD03009BB21A00194BA3
:100170001A60164B00221A70154B00221A80154B7C
:100180001B68154A934209D90221052000F0BAF8EC
:10019000124B1900032000F0C1FBD8E70221052013
:1001A00000F096F8AF235B001900032000F0B6FBC7
:1001B000CDE7C046A40E0000C00E0000E80E00000F
:1001C000F40E0000B00E0000CC0E0000080000206D
:1001D0000000002004000020DC050000EE0200000A
:1001E00080B500AF0121022000F076FB002000F076
:1001F000A1FC03001B051B0D9AB2084B1B889BB288
:10020000D3189AB2054B1A80054B1B780133DAB22A
:10021000034B1A70C046BD4680BDC046000000209A
:100220000800002080B584B000AF78600023FB6038
:1002300002E0FB680133FB60FA687B689A42F8DBF6
:100240000023BB6002E0BB680133BB60BA687B6817
:100250009A42F8DBC046C046BD4604B080BD80B5BA
:1002600000AF0321012000F0A5F90221032000F0D6
:10027000E9F90321012000F0C1F903220121122034
:1002800000F0F4F90221012000F094F91821022075
:1002900000F0D8F90221012000F0B0F9022201217A
:1002A000092000F0E3F90121012000F083F9F02199
:1002B000012000F0C7F90121012000F09FF901227F
:1002C0000121082000F0D2F9C046BD4680BDC046DD
:1002D00080B584B000AF02003960FB1D1A70FB1DB1
:1002E0001B78074A944663441B02FB6001223B686B
:1002F0009A40FB681A64C046BD4604B080BDC04643
:100300000004400080B584B000AF02003960FB1DDE
:100310001A70FB1D1B78074A944663441B02FB605E
:1003200001223B689A40FB685A64C046BD4604B04F
:1003300080BDC0460004400080B584B000AF02001C
:100340003960FB1D1A70FB1D1B78074A94466344F5
:100350001B02FB6001223B689A40FB689A64C0461E
:10036000BD4604B080BDC0460004400080B584B0E6
:1003700000AF02003960FB1D1A70FB1D1B78084A94
:10038000944663441B02FB60FB685A683B68DA4092
:100390001300012213401800BD4604B080BDC046C2
:1003A0000004400080B588B000AFB9607A600F21CA
:1003B0007B18021C1A707B181B78194A94466344F8
:1003C0001B02FB61BA6813005B009B18BB61FB69F1
:1003D0009B680721BA6991400A00D24313407B61B0
:1003E0007B6807221A40BB699A407B691A43FB6904
:1003F0009A60FB699B690121BA6891400A00D24367
:1004000013407B617B68DB0801221A40BB689A407D
:100410007B691A43FB699A61C046BD4608B080BD3E
:100420000004400080B586B000AF39601100FB1DAC
:10043000021C1A70BB1D0A1C1A70FB1D1B78154A82
:10044000944663441B027B617B69134A9446634470
:100450001B0A3B613B69114A944663441B02FB60E3
:10046000FB681B683A6892000F2191400A00D24352
:100470001340BB60BB1D1B780F221A403B689B00DA
:100480009A40BB681A43FB681A60C046BD4606B076
:1004900080BDC046000440000000FCBF00024000D8
:1004A00080B588B000AFB9607A600F217B18021C5C
:1004B0001A707B181B780F4A944663441B02FB6139
:1004C000BB685B00BB61FB69DB680321BA699140D3
:1004D0000A00D24313407B617B6803221A40BB6948
:1004E0009A407B691A43FB69DA60C046BD4608B092
:1004F00080BDC0460004400090B585B000AFB96033
:100500007A6019000F243B19021C1A700E23FB1885
:100510000A1C1A707B681B68002B07D1BA683B194C
:100520001B7811001800FFF7EDFE07E0BA680F23F3
:10053000FB181B7811001800FFF7CAFE7B685A6889
:10054000B9680F243B191B781800FFF72BFF0E2307
:10055000FB181A78B9683B191B781800FFF762FF7F
:100560007B689A68B9683B191B781800FFF798FFF9
:10057000C046BD4605B090BD80B584B000AF020056
:100580003960FB1D1A70FB1D1B78094A94466344B1
:100590001B02FB60FB681B6901223B689A40FB68F9
:1005A0001A61FB681B69C046BD4604B080BDC046E9
:1005B0000004400080B584B000AF02003960FB1D2C
:1005C0001A700C4B1B68FB60FB680B4A1340FB6006
:1005D000FB1D1B789A013B681A43FB68134380227A
:1005E000D2051343FB60034BFA681A60C046BD4650
:1005F00004B080BD0000014000FFFFBF80B584B0A3
:1006000000AF02003960FB1D1A700C4B1B68FB60C9
:10061000FB680B4A1340FB60FB1D1B789A013B688B
:100620001A43FB681343802212061343FB60034BFB
:10063000FA681A60C046BD4604B080BD00000140A3
:1006400000FFFF7F80B582B000AF786039603B6803
:10065000013B05491A027B68C0339B005A50C046D3
:10066000BD4602B080BDC0460000014080B584B0E8
:1006700000AF3A60FB1D021C1A70BB1D0A1C1A70E9
:100680000E4AFB1D1B7840339B009B58FB60FB68A8
:10069000FF229343FB60BB1D1B789A013B68134309
:1006A000FA681343FB600549FB1D1B7840339B0030
:1006B000FA685A50C046BD4604B080BD00000140F3
:1006C00080B584B000AF02003960FB1D1A70FB1DBD
:1006D0001B78072B4ED8FB1D1B789B01274A94469D
:1006E0006344FB60FB1D1B78180000F067F8FB1DDE
:1006F0001B780021180000F0D3F8214BBB60FB6889
:100700001B68BA68D2431A403B681B781906E0237D
:10071000DB040B401A433B685B7B1902E023DB00E0
:100720000B401A43FB681A603B681B78042B02D10C
:10073000FB6831229A623B685B685A1EFB685A610B
:100740003B689B68002B03D1FB680E4ADA6004E02B
:100750003B689B685A1EFB68DA603B681B7B1A008B
:1007600003231A40FB689A63FB1D1B78180000F0F6
:100770000BF800E0C046BD4604B080BD000120403B
:1007800000070007FFFF000080B582B000AF020045
:10079000FB1D1A70FB1D1B78072B09D8064B196827
:1007A000FB1D1B7801229A40034B0A431A6000E0AC
:1007B000C046BD4602B080BD0000204080B582B07A
:1007C00000AF0200FB1D1A70FB1D1B78072B0BD816
:1007D000074B1A68FB1D1B78012199400B00D94378
:1007E000034B0A401A6000E0C046BD4602B080BD1F
:1007F0000000204080B582B000AF0200FB1D1A70DF
:10080000FB1D1B78072B0AD8074B9968FB1D1B782B
:10081000183301229A40044B0A439A6000E0C04614
:10082000BD4602B080BDC0460000204080B582B009
:1008300000AF0200FB1D1A70FB1D1B78072B0AD8A6
:10084000074B9968FB1D1B78103301229A40044B1B
:100850000A439A6000E0C046BD4602B080BDC04673
:100860000000204080B584B000AF0200FB1D1A706C
:10087000FB1D1B78072B01D900230AE0FB1D1B7809
:100880009B01064A94466344FB60FB689B681B041B
:100890001B0C1800BD4604B080BDC04600012040BE
:1008A00080B584B000AF02003960FB1D1A70FB1DDB
:1008B0001B78072B0AD8FB1D1B789B01054A944621
:1008C0006344FB60FB683A689A6000E0C046BD463E
:1008D00004B080BD0001204080B584B000AF0200AC
:1008E000FB1D1A70BB1D0A1C1A70FB1D1B78072B01
:1008F0000DD8FB1D1B789B01074A94466344FB609F
:10090000BB1D1B7803221A40FB681A6300E0C04637
:10091000BD4604B080BDC0460001204080B584B013
:1009200000AF02003960FB1D1A70FB1D1B78072BFE
:1009300027D8FB1D1B789B01144A94466344FB6037
:10094000FB1D1B781800FFF739FFFB1D1B780021EA
:100950001800FFF7A5FF3B68002B03D1FB680C4A8A
:10096000DA6003E03B685A1EFB68DA60FB1D1B7807
:100970001800FFF709FFFB1D1B781800FFF73AFF6F
:1009800000E0C046BD4604B080BDC0460001204026
:10099000FFFF000080B500AF62B6C046BD4680BD17
:1009A00080B500AF72B6C046BD4680BD80B584B08C
:1009B00000AF786039607B68002B20DB7B689B0888
:1009C000FB60114AFB68C0339B009B587A68D200D9
:1009D00018210A40FF2191400A00D2431A403B6887
:1009E0009B01FF2119407B68DB00182003409940E0
:1009F0000B0005491A43FB68C0339B005A50C046A0
:100A0000BD4604B080BDC04600E100E080B582B0C4
:100A100000AF78607B68002B08DB7B681F221340E7
:100A2000044901229A40C0235B00CA50C046BD461B
:100A300002B080BD00E100E080B582B000AF786018
:100A40007B68002B07DB7B681F221A40044B0121C7
:100A500091400A001A60C046BD4602B080BDC04643
:100A600000E100E080B582B000AF78607B68002BC9
:100A70000CDB7B681F221340064901229A401300B9
:100A800080228B50BFF34F8FBFF36F8FC046BD46A0
:100A900002B080BD00E100E0B0B584B000AF050059
:100AA0000C0010001900FB1D2A1C1A70BB1D221C13
:100AB0001A707B1D021C1A703B1D0A1C1A701A4BFF
:100AC0001B68FB60FB68194A1340FB60FB1D1B7829
:100AD0001B0170221A407B1D1B785902E0231B0169
:100AE0000B401A43FB681343114A1343FB600E4B40
:100AF000FA681A60BB1D1B780B4901229A40C0237B
:100B00009B00CA50084B59683B1D1B781A04064BC2
:100B10000A435A60044B1A69034B0A210A431A61BB
:100B2000C046BD4604B0B0BD00003A400FF1FF3FE3
:100B3000800000C080B584B000AF0200FB1D1A70B9
:100B4000FB1D1B7801229A400C4B5A62C0460B4A8F
:100B500084239B00D35801221340012BF7D1074A6D
:100B6000FB1D1B7860339B009A580E217B181A805E
:100B70007B181B881800BD4604B080BD00003A40B9
:100B800080B500AF024B01225A62C046BD4680BD0F
:100B900000003A40B0B584B000AF05000C00100072
:100BA0001900FB1D2A1C1A70BB1D221C1A707B1D0C
:100BB000021C1A703B1D0A1C1A70BB1D1B78022BED
:100BC00008D11A4B5A68194B01210A435A60BB1DC0
:100BD00001221A70154AFB1D1B7820339B009B587D
:100BE000FB60FB68124A1340FB603B1D1B780F2221
:100BF0001A407B1D1B781B01FF210B401A43BB1DB4
:100C00001B78590280239B000B4013431A00FB689A
:100C10001343FB600549FB1D1B7820339B00FA68DA
:100C20005A50C046BD4604B0B0BDC04600003A4070
:100C300088CDFFFF80B582B000AF0200FB1D1A70A7
:100C4000074B1A6AFB1D1B78012199400B00190004
:100C5000034B0A431A62C046BD4602B080BDC0467F
:100C600000003A4080B582B000AF0200FB1D1A7050
:100C7000074B1A6AFB1D1B78012199400B00DB43CF
:100C80001900034B0A401A62C046BD4602B080BD3F
:100C900000003A4080B500AFC046BD4680BD80B57B
:100CA00086B000AF1C4B1D4A1A601D4A1D4BD31A5B
:100CB0009B107B601B4B7B611B4B3B610023FB60EC
:100CC0000AE03A69131D3B617B69191D796112685D
:100CD0001A60FB680133FB60FA687B689A42F0D3C4
:100CE000124A134BD31A9B107B60114B7B6100237C
:100CF000BB6007E07B691A1D7A6100221A60BB683D
:100D00000133BB60BA687B689A42F3D300F0A6F85F
:100D1000FFF7D6F9C046FDE7380003406588EDAC23
:100D20000000002000000020000F00000C00002048
:100D30000000002080B500AFC046FDE780B500AFE1
:100D4000C046FDE7002243088B4274D303098B425F
:100D50005FD3030A8B4244D3030B8B4228D3030C8B
:100D60008B420DD3FF22090212BA030C8B4202D32D
:100D70001212090265D0030B8B4219D300E0090A55
:100D8000C30B8B4201D3CB03C01A5241830B8B425E
:100D900001D38B03C01A5241430B8B4201D34B0347
:100DA000C01A5241030B8B4201D30B03C01A5241AC
:100DB000C30A8B4201D3CB02C01A5241830A8B4231
:100DC00001D38B02C01A5241430A8B4201D34B021A
:100DD000C01A5241030A8B4201D30B02C01A52417E
:100DE000CDD2C3098B4201D3CB01C01A5241830932
:100DF0008B4201D38B01C01A524143098B4201D36C
:100E00004B01C01A524103098B4201D30B01C01A96
:100E10005241C3088B4201D3CB00C01A5241830810
:100E20008B4201D38B00C01A524143088B4201D33D
:100E30004B00C01A5241411A00D20146524110469D
:100E40007047FFE701B5002000F006F802BDC0467C
:100E50000029F7D076E770477047C04670B5002686
:100E60000C4C0D4D641BA410A64209D10026FFF7BF
:100E700011FF0A4C0A4D641BA410A64205D170BD97
:100E8000B300EB5898470136EEE7B300EB589847AC
:100E90000136F2E700000000000000000000000042
:100EA000000000000000000006000000000000003C
:100EB00004000000E8030000F4010000000000004E
:100EC000010000000600000000000000000000001B
:100ED000E803000000000000010000000100000025
:100EE00006000000000000000100000006000000F5
:100EF00000000000000000000600000000000000EC
:0400000300000C9F4E
:00000001FF
