:10000000004000209F040000350500003D05000071
:1000100000000000000000000000000000000000E0
:100020000000000000000000000000003505000096
:10003000000000000000000035050000350500004C
:1000400035050000350500003505000035050000C8
:1000500035050000350500003505000035050000B8
:1000600035050000350500003505000035050000A8
:100070003505000035050000350500003505000098
:100080003505000035050000350500003505000088
:100090003505000035050000350500003505000078
:1000A0003505000035050000350500003505000068
:1000B0000000000000000000000000000000000040
:1000C00080B582B000AF0D4A0D480023072100F033
:1000D00010F90B4B0721180000F078F8031E03D12C
:1000E000A0235B027B6002E080231B027B607B68B5
:1000F000180000F007F8C046FDE7C0468C05000078
:100100000003044080B586B000AF78607B681B6850
:100110007B617B6804331B683B617A6980239B05A4
:100120009A4204D37B69124A934200D800E0FEE76A
:100130003B69013304D03B69002B01D001E0FFE7AC
:10014000FDE700F021F90B4B7A681A60BFF34F8F7F
:10015000BFF36F8F7B6983F30888BFF34F8FBFF3C3
:100160006F8F3B69FB60FB689847C046FDE7C04660
:100170000040002008ED00E080B582B000AF78605C
:10018000396001223B689A407B681A64C046BD46CC
:1001900002B080BD80B582B000AF786039600122C6
:1001A0003B689A407B685A64C046BD4602B080BD39
:1001B00080B582B000AF7860396001223B689A4018
:1001C0007B689A64C046BD4602B080BD80B582B0EF
:1001D00000AF786039607B685A683B68DA4013008A
:1001E000012213401800BD4602B080BD80B586B024
:1001F00000AFF860B9607A60BA6813005B009B18C2
:100200007B61FB689B6807217A6991400A00D243B1
:1002100013403B617B6807221A407B699A403B6927
:100220001A43FB689A60FB689B690121BA68914098
:100230000A00D24313403B617B68DB0801221A406D
:10024000BB689A403B691A43FB689A61C046BD4649
:1002500006B080BD80B588B000AFF860B960FB1D06
:100260001A70FB68114A944663441B0AFB61FB69E0
:100270000F4A944663441B02BB61BB691B68BA68A2
:1002800092000F2191400A00D24313407B61FB1D75
:100290001B780F221A40BB689B009A407B691A4367
:1002A000BB691A60C046BD4608B080BD0000FCBFF7
:1002B0000002400080B586B000AFF860B9607A6097
:1002C000BB685B007B61FB68DB6803217A69914056
:1002D0000A00D24313403B617B6803221A407B69CA
:1002E0009A403B691A43FB68DA60C046BD4606B0D7
:1002F00080BD80B584B000AFF860B9607A601A0044
:10030000FB1C1A707B681B68002B06D1BA68FB685F
:1003100011001800FFF73EFF05E0BA68FB68110006
:100320001800FFF729FF7B685A68B968FB68180056
:10033000FFF75CFFFB1C1A78B968FB681800FFF731
:1003400089FF7B689A68B968FB681800FFF7B2FFFD
:10035000C046BD4604B080BD80B582B000AF7860B5
:1003600039607B681B6901223B689A407B681A618F
:100370007B681B69C046BD4602B080BD80B500AF3A
:1003800062B6C046BD4680BD80B500AF72B6C046FD
:10039000BD4680BD80B582B000AF786039607B68B3
:1003A000002B1FDB114A7B689B08C0339B009B58C6
:1003B0007A6803210A40D200FF2191400A00D2430B
:1003C0001A4011003B689B01FF221A407B68032002
:1003D0000340DB009A4005487B689B080A43C03312
:1003E0009B001A50C046BD4602B080BD00E100E04F
:1003F00080B582B000AF78607B68002B08DB7B683B
:100400001F221340044901229A40C0235B00CA50B6
:10041000C046BD4602B080BD00E100E080B582B0BC
:1004200000AF78607B68002B07DB7B681F221A40D7
:10043000044B012191400A001A60C046BD4602B03B
:1004400080BDC04600E100E080B582B000AF7860BA
:100450007B68002B0CDB7B681F22134006490122BE
:100460009A40130080228B50BFF34F8FBFF36F8FE2
:10047000C046BD4602B080BD00E100E080B582B05C
:1004800000AF78607B6883F30888C046BD4602B041
:1004900080BDC04680B500AFC046BD4680BD80B5BA
:1004A00086B000AF1C4B1D4A1A601D4A1D4BD31A63
:1004B0009B107B601B4B7B611B4B3B610023FB60F4
:1004C0000AE03A69131D3B617B69191D7961126865
:1004D0001A60FB680133FB60FA687B689A42F0D3CC
:1004E000124A134BD31A9B107B60114B7B61002384
:1004F000BB6007E07B691A1D7A6100221A60BB6845
:100500000133BB60BA687B689A42F3D300F01AF8F3
:10051000FFF7D6FDC046FDE7380003406588EDAC27
:1005200000000020000000209805000000000020CE
:100530000000002080B500AFC046FDE780B500AFE9
:10054000C046FDE770B500260C4C0D4D641BA41091
:10055000A64209D10026FFF79DFF0A4C0A4D641BF5
:10056000A410A64205D170BDB300EB5898470136E0
:10057000EEE7B300EB5898470136F2E700000000C1
:10058000000000000000000000000000010000006A
:08059000020000000000000061
:040000030000049F56
:1080000000400020C3840000598500006185000005
:108010000000000000000000000000000000000060
:108020000000000000000000000000005985000072
:108030000000000000000000598500005985000084
:108040005985000059850000598500007F81000096
:1080500059850000598500005985000059850000A8
:108060005985000059850000598500005985000098
:108070005985000059850000598500005985000088
:108080005985000059850000598500005985000078
:108090005985000059850000598500005985000068
:1080A0005985000059850000598500005985000058
:1080B00000000000000000000000000000000000C0
:1080C00080B500AF00F07EF9174A1848002302215E
:1080D00000F033F9164A17480023072100F02DF964
:1080E000154A16480023062100F027F90121032034
:1080F00000F06EF9032000F099F9032000F0ACF9CC
:108100000E4B0621180000F05BF80D4B180000F034
:1081100019F80A4B0621180000F060F8084B180007
:1081200000F010F8C046EBE7B08500000002044004
:10813000C885000000030440BC8500000001044025
:1081400060EA000080B584B000AF78600023FB6077
:1081500002E0FB680133FB60FA687B689A42F8DB57
:108160000023BB6002E0BB680133BB60BA687B6878
:108170009A42F8DBC046C046BD4604B080BD80B51B
:1081800000AF0C4B0721180000F00AF90A4B180049
:10819000FFF7D8FF074B0721180000F03BF8031E3C
:1081A00004D1064B0221180000F026F8C046BD4657
:1081B00080BDC04600030440204E00000002044081
:1081C00080B582B000AF7860396001223B689A4088
:1081D0007B681A64C046BD4602B080BD80B582B0DF
:1081E00000AF7860396001223B689A407B685A642E
:1081F000C046BD4602B080BD80B582B000AF786099
:10820000396001223B689A407B689A64C046BD464B
:1082100002B080BD80B582B000AF786039607B6805
:108220005A683B68DA401300012213401800BD462B
:1082300002B080BD80B586B000AFF860B9607A60EA
:10824000BA6813005B009B187B61FB689B68072181
:108250007A6991400A00D24313403B617B68072250
:108260001A407B699A403B691A43FB689A60FB6835
:108270009B690121BA6891400A00D24313403B61D7
:108280007B68DB0801221A40BB689A403B691A43AD
:10829000FB689A61C046BD4606B080BD80B588B017
:1082A00000AFF860B960FB1D1A70FB68114A944674
:1082B00063441B0AFB61FB690F4A944663441B023B
:1082C000BB61BB691B68BA6892000F2191400A002C
:1082D000D24313407B61FB1D1B780F221A40BB6801
:1082E0009B009A407B691A43BB691A60C046BD4631
:1082F00008B080BD0000FCBF0002400080B586B021
:1083000000AFF860B9607A60BB685B007B61FB68B6
:10831000DB6803217A6991400A00D24313403B6134
:108320007B6803221A407B699A403B691A43FB68C9
:10833000DA60C046BD4606B080BD80B584B000AFEF
:10834000F860B9607A601A00FB1C1A707B681B68C1
:10835000002B06D1BA68FB6811001800FFF73EFF3A
:1083600005E0BA68FB6811001800FFF729FF7B6879
:108370005A68B968FB681800FFF75CFFFB1C1A78A5
:10838000B968FB681800FFF789FF7B689A68B968CD
:10839000FB681800FFF7B2FFC046BD4604B080BDC1
:1083A00080B582B000AF786039607B681B690122BC
:1083B0003B689A407B681A617B681B69C046BD4672
:1083C00002B080BD80B500AF62B6C046BD4680BD7C
:1083D00080B582B000AF786039607B68002B1FDB0E
:1083E000114A7B689B08C0339B009B587A68032125
:1083F0000A40D200FF2191400A00D2431A401100E6
:108400003B689B01FF221A407B6803200340DB008E
:108410009A4005487B689B080A43C0339B001A506A
:10842000C046BD4602B080BD00E100E080B582B02C
:1084300000AF78607B68002B08DB7B681F2213404D
:10844000044901229A40C0235B00CA50C046BD4681
:1084500002B080BD00E100E080B582B000AF78607E
:108460007B68002B07DB7B681F221A40044B01212D
:1084700091400A001A60C046BD4602B080BDC046A9
:1084800000E100E080B582B000AF78607B68002B2F
:108490000CDB7B681F221340064901229A4013001F
:1084A00080228B50BFF34F8FBFF36F8FC046BD4606
:1084B00002B080BD00E100E080B500AFC046BD461F
:1084C00080BD80B586B000AF1C4B1D4A1A601D4AA6
:1084D0001D4BD31A9B107B601B4B7B611B4B3B617D
:1084E0000023FB600AE03A69131D3B617B69191D9B
:1084F000796112681A60FB680133FB60FA687B6877
:108500009A42F0D3124A134BD31A9B107B60114B43
:108510007B610023BB6007E07B691A1D7A61002242
:108520001A60BB680133BB60BA687B689A42F3D3B8
:1085300000F01AF8FFF7C4FDC046FDE7380003401D
:108540006588EDAC0000002000000020D48500000C
:10855000000000200000002080B500AFC046FDE70D
:1085600080B500AFC046FDE770B500260C4C0D4D40
:10857000641BA410A64209D10026FFF79DFF0A4CF8
:108580000A4D641BA410A64205D170BDB300EB5880
:1085900098470136EEE7B300EB5898470136F2E70B
:1085A00000000000000000000000000000000000CB
:1085B000010000000E0000000000000001000000AB
:1085C00006000000000000000100000002000000A2
:0485D00002000000A5
:04000003000084C3B2
:020000021000EC
:1040000000400020C3440100594501006145010002
:1040100000000000000000000000000000000000A0
:1040200000000000000000000000000059450100F1
:104030000000000000000000594501005945010042
:104040005945010059450100594501007F410100D2
:1040500059450100594501005945010059450100E4
:1040600059450100594501005945010059450100D4
:1040700059450100594501005945010059450100C4
:1040800059450100594501005945010059450100B4
:1040900059450100594501005945010059450100A4
:1040A0005945010059450100594501005945010094
:1040B0000000000000000000000000000000000000
:1040C00080B500AF00F07EF9174A1848002302219E
:1040D00000F033F9164A17480023072100F02DF9A4
:1040E000154A16480023062100F027F90121032074
:1040F00000F06EF9032000F099F9032000F0ACF90C
:104100000A4B0221180000F05BF80D4B180000F07C
:1041100019F8064B0221180000F060F8084B18004F
:1041200000F010F8C046EBE7B04501000002044083
:10413000C845010000030440BC45010000010440E3
:1041400060EA000080B584B000AF78600023FB60B7
:1041500002E0FB680133FB60FA687B689A42F8DB97
:104160000023BB6002E0BB680133BB60BA687B68B8
:104170009A42F8DBC046C046BD4604B080BD80B55B
:1041800000AF0C4B0721180000F00AF90A4B180089
:10419000FFF7D8FF074B0721180000F03BF8031E7C
:1041A00004D1064B0621180000F026F8C046BD4693
:1041B00080BDC04600030440204E000000010440C2
:1041C00080B582B000AF7860396001223B689A40C8
:1041D0007B681A64C046BD4602B080BD80B582B01F
:1041E00000AF7860396001223B689A407B685A646E
:1041F000C046BD4602B080BD80B582B000AF7860D9
:10420000396001223B689A407B689A64C046BD468B
:1042100002B080BD80B582B000AF786039607B6845
:104220005A683B68DA401300012213401800BD466B
:1042300002B080BD80B586B000AFF860B9607A602A
:10424000BA6813005B009B187B61FB689B680721C1
:104250007A6991400A00D24313403B617B68072290
:104260001A407B699A403B691A43FB689A60FB6875
:104270009B690121BA6891400A00D24313403B6117
:104280007B68DB0801221A40BB689A403B691A43ED
:10429000FB689A61C046BD4606B080BD80B588B057
:1042A00000AFF860B960FB1D1A70FB68114A9446B4
:1042B00063441B0AFB61FB690F4A944663441B027B
:1042C000BB61BB691B68BA6892000F2191400A006C
:1042D000D24313407B61FB1D1B780F221A40BB6841
:1042E0009B009A407B691A43BB691A60C046BD4671
:1042F00008B080BD0000FCBF0002400080B586B061
:1043000000AFF860B9607A60BB685B007B61FB68F6
:10431000DB6803217A6991400A00D24313403B6174
:104320007B6803221A407B699A403B691A43FB6809
:10433000DA60C046BD4606B080BD80B584B000AF2F
:10434000F860B9607A601A00FB1C1A707B681B6801
:10435000002B06D1BA68FB6811001800FFF73EFF7A
:1043600005E0BA68FB6811001800FFF729FF7B68B9
:104370005A68B968FB681800FFF75CFFFB1C1A78E5
:10438000B968FB681800FFF789FF7B689A68B9680D
:10439000FB681800FFF7B2FFC046BD4604B080BD01
:1043A00080B582B000AF786039607B681B690122FC
:1043B0003B689A407B681A617B681B69C046BD46B2
:1043C00002B080BD80B500AF62B6C046BD4680BDBC
:1043D00080B582B000AF786039607B68002B1FDB4E
:1043E000114A7B689B08C0339B009B587A68032165
:1043F0000A40D200FF2191400A00D2431A40110026
:104400003B689B01FF221A407B6803200340DB00CE
:104410009A4005487B689B080A43C0339B001A50AA
:10442000C046BD4602B080BD00E100E080B582B06C
:1044300000AF78607B68002B08DB7B681F2213408D
:10444000044901229A40C0235B00CA50C046BD46C1
:1044500002B080BD00E100E080B582B000AF7860BE
:104460007B68002B07DB7B681F221A40044B01216D
:1044700091400A001A60C046BD4602B080BDC046E9
:1044800000E100E080B582B000AF78607B68002B6F
:104490000CDB7B681F221340064901229A4013005F
:1044A00080228B50BFF34F8FBFF36F8FC046BD4646
:1044B00002B080BD00E100E080B500AFC046BD465F
:1044C00080BD80B586B000AF1C4B1D4A1A601D4AE6
:1044D0001D4BD31A9B107B601B4B7B611B4B3B61BD
:1044E0000023FB600AE03A69131D3B617B69191DDB
:1044F000796112681A60FB680133FB60FA687B68B7
:104500009A42F0D3124A134BD31A9B107B60114B83
:104510007B610023BB6007E07B691A1D7A61002282
:104520001A60BB680133BB60BA687B689A42F3D3F8
:1045300000F01AF8FFF7C4FDC046FDE7380003405D
:104540006588EDAC0000002000000020D44501008B
:10455000000000200000002080B500AFC046FDE74D
:1045600080B500AFC046FDE770B500260C4C0D4D80
:10457000641BA410A64209D10026FFF79DFF0A4C38
:104580000A4D641BA410A64205D170BDB300EB58C0
:1045900098470136EEE7B300EB5898470136F2E74B
:1045A000000000000000000000000000000000000B
:1045B000010000000E0000000000000001000000EB
:1045C00006000000000000000100000002000000E2
:0445D00002000000E5
:04000003100044C3E2
:00000001FF
